S00B00003131312E7372656386
S315000000002006002055080000C50600005108000023
S315000000105108000051080000510800005108000076
S315000000200000000000000000000000005108000071
S3150000003051080000000000005108000051080000AF
S315000000404504000045040000000000000000000018
S31500000050000000000000000000000000000000009A
S31500000060000000000000000000000000000000008A
S31500000070000000000000000000000000000000007A
S31500000080000000000000000000000000000000006A
S31500000090000000000000000000000000000000005A
S315000000A0000000000000000000000000000000004A
S315000000B0000000000000000000000000000000003A
S315000000C0000000000000000000000000000000002A
S315000000D0000000000000000000000000000000001A
S315000000E0000000000000000000000000000000000A
S315000000F000000000000000000000000000000000FA
S3150000010000000000000000000000000000000000E9
S3150000011000000000000000000000000000000000D9
S3150000012000000000000000000000000000000000C9
S3150000013000000000000000000000000000000000B9
S3150000014000000000000000000000000000000000A9
S315000001500000000000000000000000000000000099
S315000001600000000000000000000000000000000089
S315000001700000000000000000000000000000000079
S315000001800000000000000000000000000000000069
S315000001900000000000000000000000000000000059
S315000001A00000000000000000000000000000000049
S315000001B00000000000000000000000000000000039
S315000001C0FFFFFFFFFFFFFFFFFFFFFFFFFFFFFFFF39
S315000001D0FFFFFFFFFFFFFFFFFFFFFFFFFFFFFFFF29
S315000001E0FFFFFFFFFFFFFFFFFFFFFFFFFFFFFFFF19
S315000001F0FFFFFFFFFFFFFFFFFFFFFFFFFFFFFFFF09
S3150000020010B5054C237833B9044B13B1044800E00C
S3150000021000BF0123237010BD28000020000000004D
S31500000220C80A000008B5034B1BB10349034800E0A8
S3150000023000BF08BD000000002C000020C80A000016
S3150000024010B50A4C00224FF48061204600F022F8D7
S31500000250002240F20341204600F01CF82046BDE88B
S315000002601040002240F2044100F014B8440000207F
S31500000270022800D070470249024800F0D9B800BFF2
S31500000280B80900004400002008B5FFF7D9FF002098
S3150000029008BD00BF0123C8B283404AB91A040B0A3D
S315000002A05B0103F1804303F5002300209A60704749
S315000002B09AB2F4E72DE9F84F0388002B3DD00746A4
S315000002C04FF00008DFF8A4A040F202427B684FEA34
S315000002D0C80559198988002491424FF00109224E18
S315000002E009D00134032C23D07B6836F8022B591928
S315000002F089889142F5D15B5909FA04F203F0B853A3
S31500000300B3F1807F5FFA82FB19D09AF8BB341A42A8
S31500000310E7D0012000F072FA9AF8BB34012023EAF4
S315000003200B0B8AF8BBB4013400F038FA032CDBD18E
S315000003303B8808F101084345C6D8BDE8F88F9AF80E
S31500000340BB2409FA04F313425FFA83FBC9D10120E7
S3150000035000F054FA9AF8BB3401204BEA030B8AF8F2
S31500000360BBB400F01BFABCE7BA0A000000E001408B
S31500000370F8B50446FFF79EFFEFF31082012383F3DF
S315000003801088284E33681BB92749CB704023CB70A1
S3150000039033680133336082F3108823887BB3626845
S315000003A003F1FF3E1FFA8EFE02F108011F4C01EB1E
S315000003B0CE0E08E0D2B21B0113448E450A4644F81D
S315000003C023001CD008311068928810F4803F4FEA51
S315000003D01223EFD0130AD2B202EB031C54F82C708E
S315000003E01B01134420F480356FF310478E4544F803
S315000003F02C700A4644F82C5044F82300E2D1EFF35F
S315000004001082012383F31088336813B13368013BEC
S31500000410336033681BB980200349CB70C87082F300
S315000004201088F8BD8C000020000D08400008084028
S3150000043008B5034B03600846FFF79AFF002008BD86
S3150000044054524F5010B582B0EFF30384184B103C52
S3150000045064B253F82410174A4879135C03F0030377
S31500000460032B11D0C03452F824306FF3104342F8F6
S31500000470243052F824308B6823B1CA68CDE90020B5
S315000004806846984702B010BD8B6823B1CA68CDE9AB
S31500000490002068469847074BC03453F824206FF372
S315000004A0104243F8242053F8243002B010BD00BF98
S315000004B09000002000600040064B074993F8260094
S315000004C01A6A51F82030C2F302620449D3400B6025
S315000004D0704700BF00E0014008000020180200201D
S315000004E0F8B54AF2035001233749384AA1F8FE030A
S315000004F0A2F80431B2F804319BB2002BFAD10121E3
S315000005004FF400454FF0090C314CDFF8DCE0314E7A
S31500000510C4F804E0DFF8D4E02B48C4F80CE02E4F12
S31500000520A2F800112D4AB16031606261276090F82F
S315000005302620A5602561056A54F82220C5F30265C8
S31500000540EA40274D2A6080F8133480F8A2C090F85C
S31500000550803493B300231C4981F8813481F88034B8
S3150000056081F8323091F83C301A07FBD543F202107D
S315000005700023154A088581F82A3092F83C309B06FC
S31500000580FBD503200523114981F81C0115490120DB
S31500000590116282F8263092F82630116A54F8233018
S315000005A0C1F30261CB402B604FF4254382F8300043
S315000005B082F85200A2F8FE33F8BD80F8801440F2AB
S315000005C0C44000F04BF8C5E700E0014000C0014020
S315000005D00800002000700040002D310100C2EB0B26
S315000005E0180200202112012000127A0000366E0146
S315000005F038B50025134C0121C82084F8285000F096
S315000006002DF884F8245094F82430002BFBD194F86C
S3150000061024300C4A43F0020384F8243092F8243044
S31500000620C3F340049B07F9D4012082F8224000F06E
S31500000630E5F8054B012083F8BB44BDE8384000F0DF
S31500000640ADB800BF0030084000E00140704700BF71
S31500000650A0F101000028FBD1704700BF10B54FF490
S315000006607A72164C164B24684FF0000EB3FBF4FC5E
S315000006704FF0FF3300FB01F1A1FB020483427EEB46
S31500000680040407D3B0FBFCF0800880B1BDE810403D
S31500000690FFF7DEBF4FEA8C0CB1FBFCF1A1FB0212A7
S315000006A08B427EEB020203D308460028EED110BD32
S315000006B01846BDE81040FFF7CBBF00BF1802002068
S315000006C000CA9A3B70B500240A4B0B4EB3F8405152
S315000006D0ADB225FA04F3DB07E0B203D556F82430B1
S315000006E003B198470134102CF3D1024BA3F83051D3
S315000006F070BD00BF006000404C00002030B56FF0B8
S31500000700FF0585B0032000F079F84FF0FF311F4C4C
S315000007101F482246856400230125CDE90111039176
S3150000072004F1C00E32F8020F590960B104A800EBBB
S31500000730810151F80C0C03F01F0C05FA0CFC20EAA1
S315000007400C0041F80C0C724503F10103EAD1019942
S31500000750104B0F4A03201167C3F8801202995167A4
S31500000760C3F8841203999167C3F8881200F016F84B
S315000007700023094803F1C00234F8021F0133602B3D
S3150000078040F82210F6D105B030BD00BFF6090000D2
S315000007900080004000E100E000600040EFF31081BF
S315000007A0012383F31088124B33F8102092B22AB13A
S315000007B033F81020013A92B223F8102033F81030A3
S315000007C09BB293B90B4A10B4B2F8FE330A4C9BB2F3
S315000007D034F8100043F4254323EA0003A2F8FE335D
S315000007E081F310885DF8044B704781F310887047D9
S315000007F01002002000E00140C00A000030B4EFF310
S315000008001081012383F310880E4A32F810309BB210
S315000008106BB90D4C0D4DB4F8FE3335F810C09BB2D4
S3150000082043EA0C0343F425439BB2A4F8FE3332F8A3
S31500000830103001339BB222F8103081F3108830BC9F
S31500000840704700BF1002002000E00140C00A00000F
S3150000085000BE704708B500F003F8FFF715FDFEE788
S315000008604FF4700270B5254B254CC3F88820002044
S315000008709C60FFF7FDFCFFF733FE0120FFF7F8FC55
S315000008802368A3F5806383F30A881E481E4A002165
S31500000890121A00F054F81D481D4A1E49121A00F09B
S315000008A041F81D4D1D4B5B1B002B07DD00249E10E0
S315000008B055F8043B01349847A642F9DCFFF7FCFDE6
S315000008C0FFF796FE0320FFF799FF00234FF6FF7010
S315000008D0134903F108020133092B21F81200F8D15C
S315000008E00320FFF75BFF0220FFF7C2FCFFF706FFBE
S315000008F0BDE870400020FFF7A9BE00BF00ED00E094
S3150000090000000000280000201C020020000000203B
S3150000091008000020CC0A000000000020040000208F
S31500000920000D08400A44431E914200D1704710B59D
S3150000093011F8014B914203F8014FF9D110BD024461
S315000009400346934200D1704703F8011BF9E7FFFF06
S315000009504275696C7420776974682052656E657398
S31500000960617320416476616E63656420466C6578C8
S3150000097069626C6520536F66747761726520506199
S31500000980636B6167652076657273696F6E20342EBE
S31500000990352E3000342E352E3000000000000504C0
S315000009A0F8B500BFF8BC08BC9E467047F8B500BF56
S315000009B0F8BC08BC9E46704707000000C00900004E
S315000009C00040000004000000004000000500000098
S315000009D00000010008010000000001000003000003
S315000009E005000000000400000500000003040000EC
S315000009F005000000040400000A000B0000000000CF
S31500000A0000000000000000000000000000000000E0
S31500000A1000000000000000000000000000000000D0
S31500000A2000000000000000000000000000000000C0
S31500000A3000000000000000000000000000000000B0
S31500000A4000000000000000000000000000000000A0
S31500000A500000000000000000000000000000000090
S31500000A600000000000000000000000000000000080
S31500000A700000000000000000000000000000000070
S31500000A800000000000000000000000000000000060
S31500000A900000000000000000000000000000000050
S31500000AA00000000000000000000000000000000040
S31500000AB00000000000000000020403040404FFFF1D
S31100000AC001000200080010000000000009
S30D00000ACC2502000001020000F2
S3150100A100FFFFFFFFFFFFFFFFFFFFFFFFFFFFFFFF58
S3090100A110FFFFFFFF48
S3090100A134FFFFFFFF24
S3150100A200FFFDFFFFFFFFFFFFFFFFFFFFFFFFFFFF59
S3150100A210FFFFFFFFFFFFFFFFFFFFFFFFFFFFFFFF47
S3150100A220FFFFFFFFFFFFFFFFFFFFFFFFFFFFFFFF37
S3150100A230FFFFFFFFFFFFFFFFFFFFFFFFFFFFFFFF27
S3150100A240FFFFFFFFFFFFFFFFFFFFFFFFFFFFFFFF17
S3150100A250FFFFFFFFFFFFFFFFFFFFFFFFFFFFFFFF07
S3150100A260FFFFFFFFFFFFFFFFFFFFFFFFFFFFFFFFF7
S3150100A270FFFFFFFFFFFFFFFFFFFFFFFFFFFFFFFFE7
S3150100A280F8F8FFFFFFFFFFFFFFFFFFFFFFFFFFFFE5
S3150100A290FFFFFFFFFFFFFFFFFFFFFFFFFFFFFFFFC7
S3150100A2A0FFFFFFFFFFFFFFFFFFFFFFFFFFFFFFFFB7
S3150100A2B0FFFFFFFFFFFFFFFFFFFFFFFFFFFFFFFFA7
S3150100A2C0FFFFFFFFFFFFFFFFFFFFFFFFFFFFFFFF97
S705000008559D
